{
  "contractName": "Register",
  "abi": [
    {
      "inputs": [
        {
          "name": "_creator",
          "type": "string"
        }
      ],
      "payable": false,
      "stateMutability": "nonpayable",
      "type": "constructor"
    },
    {
      "constant": false,
      "inputs": [
        {
          "name": "_first",
          "type": "string"
        },
        {
          "name": "_last",
          "type": "string"
        },
        {
          "name": "_email",
          "type": "string"
        }
      ],
      "name": "register",
      "outputs": [],
      "payable": false,
      "stateMutability": "nonpayable",
      "type": "function"
    },
    {
      "constant": true,
      "inputs": [
        {
          "name": "_of",
          "type": "address"
        }
      ],
      "name": "getUser",
      "outputs": [
        {
          "name": "first",
          "type": "string"
        },
        {
          "name": "last",
          "type": "string"
        },
        {
          "name": "email",
          "type": "string"
        }
      ],
      "payable": false,
      "stateMutability": "view",
      "type": "function"
    },
    {
      "constant": true,
      "inputs": [
        {
          "name": "a",
          "type": "string"
        },
        {
          "name": "b",
          "type": "string"
        }
      ],
      "name": "strcmp",
      "outputs": [
        {
          "name": "",
          "type": "bool"
        }
      ],
      "payable": false,
      "stateMutability": "pure",
      "type": "function"
    }
  ],
  "bytecode": "0x60806040523480156200001157600080fd5b5060405162000f0738038062000f0783398101806040526200003791908101906200026f565b6060604051908101604052808281526020016040805190810160405280600481526020017f486572650000000000000000000000000000000000000000000000000000000081525081526020016040805190810160405280600181526020017f2d000000000000000000000000000000000000000000000000000000000000008152508152506000803373ffffffffffffffffffffffffffffffffffffffff1673ffffffffffffffffffffffffffffffffffffffff16815260200190815260200160002060008201518160000190805190602001906200011992919062000162565b5060208201518160010190805190602001906200013892919062000162565b5060408201518160020190805190602001906200015792919062000162565b509050505062000345565b828054600181600116156101000203166002900490600052602060002090601f016020900481019282601f10620001a557805160ff1916838001178555620001d6565b82800160010185558215620001d6579182015b82811115620001d5578251825591602001919060010190620001b8565b5b509050620001e59190620001e9565b5090565b6200020e91905b808211156200020a576000816000905550600101620001f0565b5090565b90565b600082601f83011215156200022557600080fd5b81516200023c6200023682620002e2565b620002b4565b915080825260208301602083018583830111156200025957600080fd5b620002668382846200030f565b50505092915050565b6000602082840312156200028257600080fd5b600082015167ffffffffffffffff8111156200029d57600080fd5b620002ab8482850162000211565b91505092915050565b6000604051905081810181811067ffffffffffffffff82111715620002d857600080fd5b8060405250919050565b600067ffffffffffffffff821115620002fa57600080fd5b601f19601f8301169050602081019050919050565b60005b838110156200032f57808201518184015260208101905062000312565b838111156200033f576000848401525b50505050565b610bb280620003556000396000f300608060405260043610610057576000357c0100000000000000000000000000000000000000000000000000000000900463ffffffff1680634cd08d031461005c5780636f77926b146100855780639cfbe1a6146100c4575b600080fd5b34801561006857600080fd5b50610083600480360361007e9190810190610952565b610101565b005b34801561009157600080fd5b506100ac60048036036100a791908101906108bd565b61047b565b6040516100bb93929190610a49565b60405180910390f35b3480156100d057600080fd5b506100eb60048036036100e691908101906108e6565b6106d5565b6040516100f89190610a2e565b60405180910390f35b606060405190810160405280848152602001838152602001828152506000803373ffffffffffffffffffffffffffffffffffffffff1673ffffffffffffffffffffffffffffffffffffffff16815260200190815260200160002060008201518160000190805190602001906101779291906107ae565b5060208201518160010190805190602001906101949291906107ae565b5060408201518160020190805190602001906101b19291906107ae565b509050506102986000803373ffffffffffffffffffffffffffffffffffffffff1673ffffffffffffffffffffffffffffffffffffffff1681526020019081526020016000206000018054600181600116156101000203166002900480601f01602080910402602001604051908101604052809291908181526020018280546001816001161561010002031660029004801561028d5780601f106102625761010080835404028352916020019161028d565b820191906000526020600020905b81548152906001019060200180831161027057829003601f168201915b5050505050846106d5565b15156102a057fe5b6103836000803373ffffffffffffffffffffffffffffffffffffffff1673ffffffffffffffffffffffffffffffffffffffff1681526020019081526020016000206001018054600181600116156101000203166002900480601f0160208091040260200160405190810160405280929190818152602001828054600181600116156101000203166002900480156103785780601f1061034d57610100808354040283529160200191610378565b820191906000526020600020905b81548152906001019060200180831161035b57829003601f168201915b5050505050836106d5565b151561038b57fe5b61046e6000803373ffffffffffffffffffffffffffffffffffffffff1673ffffffffffffffffffffffffffffffffffffffff1681526020019081526020016000206002018054600181600116156101000203166002900480601f0160208091040260200160405190810160405280929190818152602001828054600181600116156101000203166002900480156104635780601f1061043857610100808354040283529160200191610463565b820191906000526020600020905b81548152906001019060200180831161044657829003601f168201915b5050505050826106d5565b151561047657fe5b505050565b60608060606000808573ffffffffffffffffffffffffffffffffffffffff16141515156104a757600080fd5b6000808673ffffffffffffffffffffffffffffffffffffffff1673ffffffffffffffffffffffffffffffffffffffff1681526020019081526020016000209050806000018160010182600201828054600181600116156101000203166002900480601f0160208091040260200160405190810160405280929190818152602001828054600181600116156101000203166002900480156105885780601f1061055d57610100808354040283529160200191610588565b820191906000526020600020905b81548152906001019060200180831161056b57829003601f168201915b50505050509250818054600181600116156101000203166002900480601f0160208091040260200160405190810160405280929190818152602001828054600181600116156101000203166002900480156106245780601f106105f957610100808354040283529160200191610624565b820191906000526020600020905b81548152906001019060200180831161060757829003601f168201915b50505050509150808054600181600116156101000203166002900480601f0160208091040260200160405190810160405280929190818152602001828054600181600116156101000203166002900480156106c05780601f10610695576101008083540402835291602001916106c0565b820191906000526020600020905b8154815290600101906020018083116106a357829003601f168201915b50505050509050935093509350509193909250565b6000816040518082805190602001908083835b60208310151561070d57805182526020820191506020810190506020830392506106e8565b6001836020036101000a038019825116818451168082178552505050505050905001915050604051809103902060001916836040518082805190602001908083835b602083101515610774578051825260208201915060208101905060208303925061074f565b6001836020036101000a03801982511681845116808217855250505050505090500191505060405180910390206000191614905092915050565b828054600181600116156101000203166002900490600052602060002090601f016020900481019282601f106107ef57805160ff191683800117855561081d565b8280016001018555821561081d579182015b8281111561081c578251825591602001919060010190610801565b5b50905061082a919061082e565b5090565b61085091905b8082111561084c576000816000905550600101610834565b5090565b90565b600061085f8235610b05565b905092915050565b600082601f830112151561087a57600080fd5b813561088d61088882610ac2565b610a95565b915080825260208301602083018583830111156108a957600080fd5b6108b4838284610b25565b50505092915050565b6000602082840312156108cf57600080fd5b60006108dd84828501610853565b91505092915050565b600080604083850312156108f957600080fd5b600083013567ffffffffffffffff81111561091357600080fd5b61091f85828601610867565b925050602083013567ffffffffffffffff81111561093c57600080fd5b61094885828601610867565b9150509250929050565b60008060006060848603121561096757600080fd5b600084013567ffffffffffffffff81111561098157600080fd5b61098d86828701610867565b935050602084013567ffffffffffffffff8111156109aa57600080fd5b6109b686828701610867565b925050604084013567ffffffffffffffff8111156109d357600080fd5b6109df86828701610867565b9150509250925092565b6109f281610af9565b82525050565b6000610a0382610aee565b808452610a17816020860160208601610b34565b610a2081610b67565b602085010191505092915050565b6000602082019050610a4360008301846109e9565b92915050565b60006060820190508181036000830152610a6381866109f8565b90508181036020830152610a7781856109f8565b90508181036040830152610a8b81846109f8565b9050949350505050565b6000604051905081810181811067ffffffffffffffff82111715610ab857600080fd5b8060405250919050565b600067ffffffffffffffff821115610ad957600080fd5b601f19601f8301169050602081019050919050565b600081519050919050565b60008115159050919050565b600073ffffffffffffffffffffffffffffffffffffffff82169050919050565b82818337600083830152505050565b60005b83811015610b52578082015181840152602081019050610b37565b83811115610b61576000848401525b50505050565b6000601f19601f83011690509190505600a265627a7a7230582021c0714d8f88a017c61ee8b1a3810f725b013e8d4036dbcde6650d05c1e0bc676c6578706572696d656e74616cf50037",
  "source": "pragma solidity ^0.4.23;\npragma experimental ABIEncoderV2;\n\n\ncontract Register {\n\n    struct User {\n        string first;\n        string last;\n        string email;\n        //string other;\n    }\n\n    mapping(address => User) users;\n\n    constructor(string _creator) public {\n        users[msg.sender] = User(_creator, \"Here\", \"-\");\n    }\n\n    function register(\n        string _first,\n        string _last,\n        string _email\n    ) public {\n        users[msg.sender] = User(_first, _last, _email);\n        assert(strcmp(users[msg.sender].first, _first));\n        assert(strcmp(users[msg.sender].last, _last));\n        assert(strcmp(users[msg.sender].email, _email));\n    }\n\n    function getUser(\n        address _of\n    ) public view returns (\n        string first,\n        string last,\n        string email\n    ) {\n        require(_of != 0x0);\n        User storage u = users[_of];\n        return (u.first, u.last, u.email);\n    }\n\n    function strcmp(\n        string a,\n        string b\n    ) public pure returns (bool) {\n        return (keccak256(a) == keccak256(b));\n    }\n\n}",
  "sourcePath": "/home/austin/contracts/form2/contracts/Register.sol",
  "compiler": {
    "name": "solc",
    "version": "0.4.23+commit.124ca40d.Emscripten.clang"
  },
  "schemaVersion": "2.0.0",
  "updatedAt": "2018-04-26T00:15:39.510Z"
}